{
  "_format": "hh-sol-artifact-1",
  "contractName": "Wallet2",
  "sourceName": "contracts/Wallet2.sol",
  "abi": [
    {
      "inputs": [],
      "stateMutability": "nonpayable",
      "type": "constructor"
    },
    {
      "anonymous": false,
      "inputs": [
        {
          "indexed": true,
          "internalType": "address",
          "name": "from",
          "type": "address"
        },
        {
          "indexed": false,
          "internalType": "uint256",
          "name": "amount",
          "type": "uint256"
        }
      ],
      "name": "MoneyDeposited",
      "type": "event"
    },
    {
      "anonymous": false,
      "inputs": [
        {
          "indexed": true,
          "internalType": "address",
          "name": "from",
          "type": "address"
        },
        {
          "indexed": true,
          "internalType": "address",
          "name": "to",
          "type": "address"
        },
        {
          "indexed": false,
          "internalType": "uint256",
          "name": "amount",
          "type": "uint256"
        }
      ],
      "name": "MoneyTransferred",
      "type": "event"
    },
    {
      "anonymous": false,
      "inputs": [
        {
          "indexed": true,
          "internalType": "address",
          "name": "to",
          "type": "address"
        },
        {
          "indexed": false,
          "internalType": "uint256",
          "name": "amount",
          "type": "uint256"
        }
      ],
      "name": "MoneyWithdrawn",
      "type": "event"
    },
    {
      "stateMutability": "payable",
      "type": "fallback"
    },
    {
      "inputs": [],
      "name": "getBalance",
      "outputs": [
        {
          "internalType": "uint256",
          "name": "",
          "type": "uint256"
        }
      ],
      "stateMutability": "view",
      "type": "function"
    },
    {
      "inputs": [
        {
          "internalType": "address",
          "name": "_user",
          "type": "address"
        }
      ],
      "name": "getUserBalance",
      "outputs": [
        {
          "internalType": "uint256",
          "name": "",
          "type": "uint256"
        }
      ],
      "stateMutability": "view",
      "type": "function"
    },
    {
      "inputs": [
        {
          "internalType": "address",
          "name": "",
          "type": "address"
        }
      ],
      "name": "isWhitelisted",
      "outputs": [
        {
          "internalType": "bool",
          "name": "",
          "type": "bool"
        }
      ],
      "stateMutability": "view",
      "type": "function"
    },
    {
      "inputs": [],
      "name": "owner",
      "outputs": [
        {
          "internalType": "address",
          "name": "",
          "type": "address"
        }
      ],
      "stateMutability": "view",
      "type": "function"
    },
    {
      "inputs": [
        {
          "internalType": "address",
          "name": "_user",
          "type": "address"
        }
      ],
      "name": "removeWhitelistUser",
      "outputs": [],
      "stateMutability": "nonpayable",
      "type": "function"
    },
    {
      "inputs": [
        {
          "internalType": "address",
          "name": "_recipient",
          "type": "address"
        },
        {
          "internalType": "uint256",
          "name": "_amount",
          "type": "uint256"
        }
      ],
      "name": "transferTo",
      "outputs": [],
      "stateMutability": "nonpayable",
      "type": "function"
    },
    {
      "inputs": [
        {
          "internalType": "address",
          "name": "_user",
          "type": "address"
        }
      ],
      "name": "whitelistUser",
      "outputs": [],
      "stateMutability": "nonpayable",
      "type": "function"
    },
    {
      "inputs": [
        {
          "internalType": "address payable",
          "name": "_to",
          "type": "address"
        },
        {
          "internalType": "uint256",
          "name": "_amount",
          "type": "uint256"
        }
      ],
      "name": "withdrawMoney",
      "outputs": [],
      "stateMutability": "nonpayable",
      "type": "function"
    },
    {
      "stateMutability": "payable",
      "type": "receive"
    }
  ],
  "bytecode": "0x6080604052348015600f57600080fd5b50336000806101000a81548173ffffffffffffffffffffffffffffffffffffffff021916908373ffffffffffffffffffffffffffffffffffffffff1602179055506001600260008060009054906101000a900473ffffffffffffffffffffffffffffffffffffffff1673ffffffffffffffffffffffffffffffffffffffff1673ffffffffffffffffffffffffffffffffffffffff16815260200190815260200160002060006101000a81548160ff021916908315150217905550610f3c806100d86000396000f3fe60806040526004361061007f5760003560e01c8063477348921161004e57806347734892146102715780634a4c560d146102ae5780638da5cb5b146102d7578063f274c89714610302576101b5565b806312065fe0146101b75780632ccb1b30146101e257806330cc7ae01461020b5780633af32abf14610234576101b5565b366101b557600260003373ffffffffffffffffffffffffffffffffffffffff1673ffffffffffffffffffffffffffffffffffffffff16815260200190815260200160002060009054906101000a900460ff16610110576040517f08c379a000000000000000000000000000000000000000000000000000000000815260040161010790610b69565b60405180910390fd5b34600160003373ffffffffffffffffffffffffffffffffffffffff1673ffffffffffffffffffffffffffffffffffffffff168152602001908152602001600020600082825461015f9190610bc2565b925050819055503373ffffffffffffffffffffffffffffffffffffffff167f8183e4d4ee059a1213db94a2d1d9486616f49a493fca6f883a302414b5bd9e55346040516101ac9190610c05565b60405180910390a25b005b3480156101c357600080fd5b506101cc61032b565b6040516101d99190610c05565b60405180910390f35b3480156101ee57600080fd5b5061020960048036038101906102049190610caf565b6103fe565b005b34801561021757600080fd5b50610232600480360381019061022d9190610cef565b610621565b005b34801561024057600080fd5b5061025b60048036038101906102569190610cef565b61070a565b6040516102689190610d37565b60405180910390f35b34801561027d57600080fd5b5061029860048036038101906102939190610cef565b61072a565b6040516102a59190610c05565b60405180910390f35b3480156102ba57600080fd5b506102d560048036038101906102d09190610cef565b610802565b005b3480156102e357600080fd5b506102ec6108eb565b6040516102f99190610d61565b60405180910390f35b34801561030e57600080fd5b5061032960048036038101906103249190610dba565b61090f565b005b6000600260003373ffffffffffffffffffffffffffffffffffffffff1673ffffffffffffffffffffffffffffffffffffffff16815260200190815260200160002060009054906101000a900460ff166103b9576040517f08c379a00000000000000000000000000000000000000000000000000000000081526004016103b090610b69565b60405180910390fd5b600160003373ffffffffffffffffffffffffffffffffffffffff1673ffffffffffffffffffffffffffffffffffffffff16815260200190815260200160002054905090565b600260003373ffffffffffffffffffffffffffffffffffffffff1673ffffffffffffffffffffffffffffffffffffffff16815260200190815260200160002060009054906101000a900460ff1661048a576040517f08c379a000000000000000000000000000000000000000000000000000000000815260040161048190610b69565b60405180910390fd5b80600160003373ffffffffffffffffffffffffffffffffffffffff1673ffffffffffffffffffffffffffffffffffffffff16815260200190815260200160002054101561050c576040517f08c379a000000000000000000000000000000000000000000000000000000000815260040161050390610e46565b60405180910390fd5b80600160003373ffffffffffffffffffffffffffffffffffffffff1673ffffffffffffffffffffffffffffffffffffffff168152602001908152602001600020600082825461055b9190610e66565b9250508190555080600160008473ffffffffffffffffffffffffffffffffffffffff1673ffffffffffffffffffffffffffffffffffffffff16815260200190815260200160002060008282546105b19190610bc2565b925050819055508173ffffffffffffffffffffffffffffffffffffffff163373ffffffffffffffffffffffffffffffffffffffff167fa1d7584d99165acdda7faf8e4dd6f4a82d358341586d4d953060fb95c3f31e6f836040516106159190610c05565b60405180910390a35050565b60008054906101000a900473ffffffffffffffffffffffffffffffffffffffff1673ffffffffffffffffffffffffffffffffffffffff163373ffffffffffffffffffffffffffffffffffffffff16146106af576040517f08c379a00000000000000000000000000000000000000000000000000000000081526004016106a690610ee6565b60405180910390fd5b6000600260008373ffffffffffffffffffffffffffffffffffffffff1673ffffffffffffffffffffffffffffffffffffffff16815260200190815260200160002060006101000a81548160ff02191690831515021790555050565b60026020528060005260406000206000915054906101000a900460ff1681565b60008060009054906101000a900473ffffffffffffffffffffffffffffffffffffffff1673ffffffffffffffffffffffffffffffffffffffff163373ffffffffffffffffffffffffffffffffffffffff16146107bb576040517f08c379a00000000000000000000000000000000000000000000000000000000081526004016107b290610ee6565b60405180910390fd5b600160008373ffffffffffffffffffffffffffffffffffffffff1673ffffffffffffffffffffffffffffffffffffffff168152602001908152602001600020549050919050565b60008054906101000a900473ffffffffffffffffffffffffffffffffffffffff1673ffffffffffffffffffffffffffffffffffffffff163373ffffffffffffffffffffffffffffffffffffffff1614610890576040517f08c379a000000000000000000000000000000000000000000000000000000000815260040161088790610ee6565b60405180910390fd5b6001600260008373ffffffffffffffffffffffffffffffffffffffff1673ffffffffffffffffffffffffffffffffffffffff16815260200190815260200160002060006101000a81548160ff02191690831515021790555050565b60008054906101000a900473ffffffffffffffffffffffffffffffffffffffff1681565b600260003373ffffffffffffffffffffffffffffffffffffffff1673ffffffffffffffffffffffffffffffffffffffff16815260200190815260200160002060009054906101000a900460ff1661099b576040517f08c379a000000000000000000000000000000000000000000000000000000000815260040161099290610b69565b60405180910390fd5b600160003373ffffffffffffffffffffffffffffffffffffffff1673ffffffffffffffffffffffffffffffffffffffff16815260200190815260200160002054811115610a1d576040517f08c379a0000000000000000000000000000000000000000000000000000000008152600401610a1490610e46565b60405180910390fd5b80600160003373ffffffffffffffffffffffffffffffffffffffff1673ffffffffffffffffffffffffffffffffffffffff1681526020019081526020016000206000828254610a6c9190610e66565b925050819055508173ffffffffffffffffffffffffffffffffffffffff166108fc829081150290604051600060405180830381858888f19350505050158015610ab9573d6000803e3d6000fd5b508173ffffffffffffffffffffffffffffffffffffffff167fe020566b3b7b0c11a72c9a01a70122b5bb1e70d24128480342bad5367fbf54e282604051610b009190610c05565b60405180910390a25050565b600082825260208201905092915050565b7f4e6f6e206175746f726973650000000000000000000000000000000000000000600082015250565b6000610b53600c83610b0c565b9150610b5e82610b1d565b602082019050919050565b60006020820190508181036000830152610b8281610b46565b9050919050565b6000819050919050565b7f4e487b7100000000000000000000000000000000000000000000000000000000600052601160045260246000fd5b6000610bcd82610b89565b9150610bd883610b89565b9250828201905080821115610bf057610bef610b93565b5b92915050565b610bff81610b89565b82525050565b6000602082019050610c1a6000830184610bf6565b92915050565b600080fd5b600073ffffffffffffffffffffffffffffffffffffffff82169050919050565b6000610c5082610c25565b9050919050565b610c6081610c45565b8114610c6b57600080fd5b50565b600081359050610c7d81610c57565b92915050565b610c8c81610b89565b8114610c9757600080fd5b50565b600081359050610ca981610c83565b92915050565b60008060408385031215610cc657610cc5610c20565b5b6000610cd485828601610c6e565b9250506020610ce585828601610c9a565b9150509250929050565b600060208284031215610d0557610d04610c20565b5b6000610d1384828501610c6e565b91505092915050565b60008115159050919050565b610d3181610d1c565b82525050565b6000602082019050610d4c6000830184610d28565b92915050565b610d5b81610c45565b82525050565b6000602082019050610d766000830184610d52565b92915050565b6000610d8782610c25565b9050919050565b610d9781610d7c565b8114610da257600080fd5b50565b600081359050610db481610d8e565b92915050565b60008060408385031215610dd157610dd0610c20565b5b6000610ddf85828601610da5565b9250506020610df085828601610c9a565b9150509250929050565b7f466f6e647320696e737566666973616e74730000000000000000000000000000600082015250565b6000610e30601283610b0c565b9150610e3b82610dfa565b602082019050919050565b60006020820190508181036000830152610e5f81610e23565b9050919050565b6000610e7182610b89565b9150610e7c83610b89565b9250828203905081811115610e9457610e93610b93565b5b92915050565b7f506173206c652070726f70726965746169726500000000000000000000000000600082015250565b6000610ed0601383610b0c565b9150610edb82610e9a565b602082019050919050565b60006020820190508181036000830152610eff81610ec3565b905091905056fea2646970667358221220cdc412ff1d9b0ee0719b6f244c20c057faf76579dfc620cd9372e16c0e5d369664736f6c634300081c0033",
  "linkReferences": {},
  "deployedLinkReferences": {}
}